{
  "_format": "hh-sol-artifact-1",
  "contractName": "Syncrobil",
  "sourceName": "contracts/syncrobill.sol",
  "abi": [
    {
      "inputs": [
        {
          "internalType": "address",
          "name": "_initialServerSigner",
          "type": "address"
        }
      ],
      "stateMutability": "nonpayable",
      "type": "constructor"
    },
    {
      "anonymous": false,
      "inputs": [
        {
          "indexed": true,
          "internalType": "uint256",
          "name": "id",
          "type": "uint256"
        },
        {
          "indexed": false,
          "internalType": "bytes32",
          "name": "documentHash",
          "type": "bytes32"
        }
      ],
      "name": "BLValidated",
      "type": "event"
    },
    {
      "anonymous": false,
      "inputs": [
        {
          "indexed": true,
          "internalType": "uint256",
          "name": "id",
          "type": "uint256"
        },
        {
          "indexed": true,
          "internalType": "address",
          "name": "seller",
          "type": "address"
        },
        {
          "indexed": false,
          "internalType": "uint256",
          "name": "amount",
          "type": "uint256"
        }
      ],
      "name": "PaymentReleased",
      "type": "event"
    },
    {
      "anonymous": false,
      "inputs": [
        {
          "indexed": true,
          "internalType": "address",
          "name": "previousSigner",
          "type": "address"
        },
        {
          "indexed": true,
          "internalType": "address",
          "name": "newSigner",
          "type": "address"
        }
      ],
      "name": "ServerSignerUpdated",
      "type": "event"
    },
    {
      "anonymous": false,
      "inputs": [
        {
          "indexed": true,
          "internalType": "uint256",
          "name": "id",
          "type": "uint256"
        },
        {
          "indexed": true,
          "internalType": "address",
          "name": "buyer",
          "type": "address"
        },
        {
          "indexed": false,
          "internalType": "uint256",
          "name": "amount",
          "type": "uint256"
        }
      ],
      "name": "ShipmentCreated",
      "type": "event"
    },
    {
      "anonymous": false,
      "inputs": [
        {
          "indexed": true,
          "internalType": "address",
          "name": "exporter",
          "type": "address"
        },
        {
          "indexed": false,
          "internalType": "uint256",
          "name": "amount",
          "type": "uint256"
        }
      ],
      "name": "Withdrawn",
      "type": "event"
    },
    {
      "inputs": [
        {
          "internalType": "address",
          "name": "_seller",
          "type": "address"
        }
      ],
      "name": "createShipment",
      "outputs": [],
      "stateMutability": "payable",
      "type": "function"
    },
    {
      "inputs": [],
      "name": "escrowBalance",
      "outputs": [
        {
          "internalType": "uint256",
          "name": "",
          "type": "uint256"
        }
      ],
      "stateMutability": "view",
      "type": "function"
    },
    {
      "inputs": [
        {
          "internalType": "uint256",
          "name": "_id",
          "type": "uint256"
        }
      ],
      "name": "getShipmentHash",
      "outputs": [
        {
          "internalType": "bytes32",
          "name": "",
          "type": "bytes32"
        }
      ],
      "stateMutability": "view",
      "type": "function"
    },
    {
      "inputs": [],
      "name": "owner",
      "outputs": [
        {
          "internalType": "address",
          "name": "",
          "type": "address"
        }
      ],
      "stateMutability": "view",
      "type": "function"
    },
    {
      "inputs": [],
      "name": "serverSigner",
      "outputs": [
        {
          "internalType": "address",
          "name": "",
          "type": "address"
        }
      ],
      "stateMutability": "view",
      "type": "function"
    },
    {
      "inputs": [
        {
          "internalType": "address",
          "name": "_newSigner",
          "type": "address"
        }
      ],
      "name": "setServerSigner",
      "outputs": [],
      "stateMutability": "nonpayable",
      "type": "function"
    },
    {
      "inputs": [],
      "name": "shipmentCount",
      "outputs": [
        {
          "internalType": "uint256",
          "name": "",
          "type": "uint256"
        }
      ],
      "stateMutability": "view",
      "type": "function"
    },
    {
      "inputs": [
        {
          "internalType": "uint256",
          "name": "",
          "type": "uint256"
        }
      ],
      "name": "shipments",
      "outputs": [
        {
          "internalType": "address",
          "name": "buyer",
          "type": "address"
        },
        {
          "internalType": "address",
          "name": "seller",
          "type": "address"
        },
        {
          "internalType": "uint256",
          "name": "value",
          "type": "uint256"
        },
        {
          "internalType": "enum Syncrobil.State",
          "name": "state",
          "type": "uint8"
        },
        {
          "internalType": "bytes32",
          "name": "billOfLadingHash",
          "type": "bytes32"
        },
        {
          "internalType": "bool",
          "name": "isValidatedByAI",
          "type": "bool"
        }
      ],
      "stateMutability": "view",
      "type": "function"
    },
    {
      "inputs": [
        {
          "internalType": "uint256",
          "name": "_id",
          "type": "uint256"
        },
        {
          "internalType": "bytes32",
          "name": "_docHash",
          "type": "bytes32"
        },
        {
          "internalType": "bytes",
          "name": "_signature",
          "type": "bytes"
        }
      ],
      "name": "submitBL",
      "outputs": [],
      "stateMutability": "nonpayable",
      "type": "function"
    },
    {
      "inputs": [
        {
          "internalType": "uint256",
          "name": "_id",
          "type": "uint256"
        }
      ],
      "name": "withdraw",
      "outputs": [],
      "stateMutability": "nonpayable",
      "type": "function"
    },
    {
      "stateMutability": "payable",
      "type": "receive"
    }
  ],
  "bytecode": "0x60806040523480156200001157600080fd5b5060405162001c7838038062001c7883398181016040528101906200003791906200019b565b600073ffffffffffffffffffffffffffffffffffffffff168173ffffffffffffffffffffffffffffffffffffffff1603620000a9576040517f08c379a0000000000000000000000000000000000000000000000000000000008152600401620000a0906200022e565b60405180910390fd5b336000806101000a81548173ffffffffffffffffffffffffffffffffffffffff021916908373ffffffffffffffffffffffffffffffffffffffff16021790555080600160006101000a81548173ffffffffffffffffffffffffffffffffffffffff021916908373ffffffffffffffffffffffffffffffffffffffff1602179055505062000250565b600080fd5b600073ffffffffffffffffffffffffffffffffffffffff82169050919050565b6000620001638262000136565b9050919050565b620001758162000156565b81146200018157600080fd5b50565b60008151905062000195816200016a565b92915050565b600060208284031215620001b457620001b362000131565b5b6000620001c48482850162000184565b91505092915050565b600082825260208201905092915050565b7f41647265737365207369676e61746169726520696e76616c6964650000000000600082015250565b600062000216601b83620001cd565b91506200022382620001de565b602082019050919050565b60006020820190508181036000830152620002498162000207565b9050919050565b611a1880620002606000396000f3fe6080604052600436106100955760003560e01c806398e862811161005957806398e862811461019f578063aace20b7146101c8578063c21602b1146101f3578063e11e1b0c1461021c578063e532f5c3146102475761009c565b80632ac08a93146100a15780632e1a7d4d146100e357806331af19081461010c5780636a69a205146101375780638da5cb5b146101745761009c565b3661009c57005b600080fd5b3480156100ad57600080fd5b506100c860048036038101906100c39190610e7f565b610263565b6040516100da96959493929190610fa7565b60405180910390f35b3480156100ef57600080fd5b5061010a60048036038101906101059190610e7f565b6102f9565b005b34801561011857600080fd5b5061012161063f565b60405161012e9190611008565b60405180910390f35b34801561014357600080fd5b5061015e60048036038101906101599190610e7f565b610665565b60405161016b9190611023565b60405180910390f35b34801561018057600080fd5b50610189610685565b6040516101969190611008565b60405180910390f35b3480156101ab57600080fd5b506101c660048036038101906101c1919061106a565b6106a9565b005b3480156101d457600080fd5b506101dd610866565b6040516101ea9190611097565b60405180910390f35b3480156101ff57600080fd5b5061021a60048036038101906102159190611224565b61086c565b005b34801561022857600080fd5b50610231610abc565b60405161023e9190611097565b60405180910390f35b610261600480360381019061025c919061106a565b610ac4565b005b60026020528060005260406000206000915090508060000160009054906101000a900473ffffffffffffffffffffffffffffffffffffffff16908060010160009054906101000a900473ffffffffffffffffffffffffffffffffffffffff16908060020154908060030160009054906101000a900460ff16908060040154908060050160009054906101000a900460ff16905086565b60006002600083815260200190815260200160002090508060010160009054906101000a900473ffffffffffffffffffffffffffffffffffffffff1673ffffffffffffffffffffffffffffffffffffffff163373ffffffffffffffffffffffffffffffffffffffff16146103a2576040517f08c379a0000000000000000000000000000000000000000000000000000000008152600401610399906112f0565b60405180910390fd5b600115158160050160009054906101000a900460ff161515146103fa576040517f08c379a00000000000000000000000000000000000000000000000000000000081526004016103f19061135c565b60405180910390fd5b6001600381111561040e5761040d610efc565b5b8160030160009054906101000a900460ff16600381111561043257610431610efc565b5b14610472576040517f08c379a0000000000000000000000000000000000000000000000000000000008152600401610469906113c8565b60405180910390fd5b60028160030160006101000a81548160ff0219169083600381111561049a57610499610efc565b5b021790555060008160020154905060008260010160009054906101000a900473ffffffffffffffffffffffffffffffffffffffff1673ffffffffffffffffffffffffffffffffffffffff16826040516104f290611419565b60006040518083038185875af1925050503d806000811461052f576040519150601f19603f3d011682016040523d82523d6000602084013e610534565b606091505b5050905080610578576040517f08c379a000000000000000000000000000000000000000000000000000000000815260040161056f9061147a565b60405180910390fd5b8260010160009054906101000a900473ffffffffffffffffffffffffffffffffffffffff1673ffffffffffffffffffffffffffffffffffffffff16847f21d71db5be59bb9fa133895586b7404307dd33fb93b16db09dc6f1d9d7d231b0846040516105e39190611097565b60405180910390a33373ffffffffffffffffffffffffffffffffffffffff167f7084f5476618d8e60b11ef0d7d3f06914655adb8793e28ff7f018d4c76d505d5836040516106319190611097565b60405180910390a250505050565b600160009054906101000a900473ffffffffffffffffffffffffffffffffffffffff1681565b600060026000838152602001908152602001600020600401549050919050565b60008054906101000a900473ffffffffffffffffffffffffffffffffffffffff1681565b60008054906101000a900473ffffffffffffffffffffffffffffffffffffffff1673ffffffffffffffffffffffffffffffffffffffff163373ffffffffffffffffffffffffffffffffffffffff1614610737576040517f08c379a000000000000000000000000000000000000000000000000000000000815260040161072e9061150c565b60405180910390fd5b600073ffffffffffffffffffffffffffffffffffffffff168173ffffffffffffffffffffffffffffffffffffffff16036107a6576040517f08c379a000000000000000000000000000000000000000000000000000000000815260040161079d90611578565b60405180910390fd5b8073ffffffffffffffffffffffffffffffffffffffff16600160009054906101000a900473ffffffffffffffffffffffffffffffffffffffff1673ffffffffffffffffffffffffffffffffffffffff167f8aca81b772b289537bcc2c109e400ab186c91216ba0e41570dd28dfff23dddad60405160405180910390a380600160006101000a81548173ffffffffffffffffffffffffffffffffffffffff021916908373ffffffffffffffffffffffffffffffffffffffff16021790555050565b60035481565b60006002600085815260200190815260200160002090506001600381111561089757610896610efc565b5b8160030160009054906101000a900460ff1660038111156108bb576108ba610efc565b5b146108fb576040517f08c379a00000000000000000000000000000000000000000000000000000000081526004016108f2906115e4565b60405180910390fd5b8060010160009054906101000a900473ffffffffffffffffffffffffffffffffffffffff1673ffffffffffffffffffffffffffffffffffffffff163373ffffffffffffffffffffffffffffffffffffffff161461098d576040517f08c379a000000000000000000000000000000000000000000000000000000000815260040161098490611676565b60405180910390fd5b6000836040516020016109a0919061170e565b60405160208183030381529060405280519060200120905060006109c48285610d5e565b9050600160009054906101000a900473ffffffffffffffffffffffffffffffffffffffff1673ffffffffffffffffffffffffffffffffffffffff168173ffffffffffffffffffffffffffffffffffffffff1614610a56576040517f08c379a0000000000000000000000000000000000000000000000000000000008152600401610a4d906117a6565b60405180910390fd5b84836004018190555060018360050160006101000a81548160ff021916908315150217905550857fe1a29b6aa932e2e09567d5c0b6ce43f2cb39082b43820463646993c57a862fe486604051610aac9190611023565b60405180910390a2505050505050565b600047905090565b60003411610b07576040517f08c379a0000000000000000000000000000000000000000000000000000000008152600401610afe90611812565b60405180910390fd5b600073ffffffffffffffffffffffffffffffffffffffff168173ffffffffffffffffffffffffffffffffffffffff1603610b76576040517f08c379a0000000000000000000000000000000000000000000000000000000008152600401610b6d9061187e565b60405180910390fd5b60036000815480929190610b89906118cd565b91905055506040518060c001604052803373ffffffffffffffffffffffffffffffffffffffff1681526020018273ffffffffffffffffffffffffffffffffffffffff16815260200134815260200160016003811115610beb57610bea610efc565b5b81526020016000801b81526020016000151581525060026000600354815260200190815260200160002060008201518160000160006101000a81548173ffffffffffffffffffffffffffffffffffffffff021916908373ffffffffffffffffffffffffffffffffffffffff16021790555060208201518160010160006101000a81548173ffffffffffffffffffffffffffffffffffffffff021916908373ffffffffffffffffffffffffffffffffffffffff1602179055506040820151816002015560608201518160030160006101000a81548160ff02191690836003811115610cd857610cd7610efc565b5b02179055506080820151816004015560a08201518160050160006101000a81548160ff0219169083151502179055509050503373ffffffffffffffffffffffffffffffffffffffff166003547fedf892d41ca950980cd2f16b337b699f8ef55ad673f3c2810af49b6a1c20004d34604051610d539190611097565b60405180910390a350565b600080600080610d6d85610dcd565b92509250925060018682858560405160008152602001604052604051610d969493929190611931565b6020604051602081039080840390855afa158015610db8573d6000803e3d6000fd5b50505060206040510351935050505092915050565b60008060006041845114610e16576040517f08c379a0000000000000000000000000000000000000000000000000000000008152600401610e0d906119c2565b60405180910390fd5b6020840151925060408401519150606084015160001a90509193909250565b6000604051905090565b600080fd5b600080fd5b6000819050919050565b610e5c81610e49565b8114610e6757600080fd5b50565b600081359050610e7981610e53565b92915050565b600060208284031215610e9557610e94610e3f565b5b6000610ea384828501610e6a565b91505092915050565b600073ffffffffffffffffffffffffffffffffffffffff82169050919050565b6000610ed782610eac565b9050919050565b610ee781610ecc565b82525050565b610ef681610e49565b82525050565b7f4e487b7100000000000000000000000000000000000000000000000000000000600052602160045260246000fd5b60048110610f3c57610f3b610efc565b5b50565b6000819050610f4d82610f2b565b919050565b6000610f5d82610f3f565b9050919050565b610f6d81610f52565b82525050565b6000819050919050565b610f8681610f73565b82525050565b60008115159050919050565b610fa181610f8c565b82525050565b600060c082019050610fbc6000830189610ede565b610fc96020830188610ede565b610fd66040830187610eed565b610fe36060830186610f64565b610ff06080830185610f7d565b610ffd60a0830184610f98565b979650505050505050565b600060208201905061101d6000830184610ede565b92915050565b60006020820190506110386000830184610f7d565b92915050565b61104781610ecc565b811461105257600080fd5b50565b6000813590506110648161103e565b92915050565b6000602082840312156110805761107f610e3f565b5b600061108e84828501611055565b91505092915050565b60006020820190506110ac6000830184610eed565b92915050565b6110bb81610f73565b81146110c657600080fd5b50565b6000813590506110d8816110b2565b92915050565b600080fd5b600080fd5b6000601f19601f8301169050919050565b7f4e487b7100000000000000000000000000000000000000000000000000000000600052604160045260246000fd5b611131826110e8565b810181811067ffffffffffffffff821117156111505761114f6110f9565b5b80604052505050565b6000611163610e35565b905061116f8282611128565b919050565b600067ffffffffffffffff82111561118f5761118e6110f9565b5b611198826110e8565b9050602081019050919050565b82818337600083830152505050565b60006111c76111c284611174565b611159565b9050828152602081018484840111156111e3576111e26110e3565b5b6111ee8482856111a5565b509392505050565b600082601f83011261120b5761120a6110de565b5b813561121b8482602086016111b4565b91505092915050565b60008060006060848603121561123d5761123c610e3f565b5b600061124b86828701610e6a565b935050602061125c868287016110c9565b925050604084013567ffffffffffffffff81111561127d5761127c610e44565b5b611289868287016111f6565b9150509250925092565b600082825260208201905092915050565b7f5365756c206c652076656e646575722070657574207265746972657200000000600082015250565b60006112da601c83611293565b91506112e5826112a4565b602082019050919050565b60006020820190508181036000830152611309816112cd565b9050919050565b7f446f63756d656e74206e6f6e2076616c69646520706172206c27494100000000600082015250565b6000611346601c83611293565b915061135182611310565b602082019050919050565b6000602082019050818103600083015261137581611339565b9050919050565b7f466f6e64732064656a61206c696265726573206f7520696e6163746966730000600082015250565b60006113b2601e83611293565b91506113bd8261137c565b602082019050919050565b600060208201905081810360008301526113e1816113a5565b9050919050565b600081905092915050565b50565b60006114036000836113e8565b915061140e826113f3565b600082019050919050565b6000611424826113f6565b9150819050919050565b7f5472616e7366657274206563686f756500000000000000000000000000000000600082015250565b6000611464601083611293565b915061146f8261142e565b602082019050919050565b6000602082019050818103600083015261149381611457565b9050919050565b7f5365756c206c652070726f70726965746169726520706575742065786563757460008201527f6572206365636900000000000000000000000000000000000000000000000000602082015250565b60006114f6602783611293565b91506115018261149a565b604082019050919050565b60006020820190508181036000830152611525816114e9565b9050919050565b7f4164726573736520696e76616c69646500000000000000000000000000000000600082015250565b6000611562601083611293565b915061156d8261152c565b602082019050919050565b6000602082019050818103600083015261159181611555565b9050919050565b7f45787065646974696f6e206e6f6e206163746976650000000000000000000000600082015250565b60006115ce601583611293565b91506115d982611598565b602082019050919050565b600060208201905081810360008301526115fd816115c1565b9050919050565b7f5365756c206c652076656e64657572207065757420736f756d6574747265206c60008201527f6520422f4c000000000000000000000000000000000000000000000000000000602082015250565b6000611660602583611293565b915061166b82611604565b604082019050919050565b6000602082019050818103600083015261168f81611653565b9050919050565b600081905092915050565b7f19457468657265756d205369676e6564204d6573736167653a0a333200000000600082015250565b60006116d7601c83611696565b91506116e2826116a1565b601c82019050919050565b6000819050919050565b61170861170382610f73565b6116ed565b82525050565b6000611719826116ca565b915061172582846116f7565b60208201915081905092915050565b7f5369676e617475726520494120696e76616c696465206f75206e6f6e2061757460008201527f6f72697365650000000000000000000000000000000000000000000000000000602082015250565b6000611790602683611293565b915061179b82611734565b604082019050919050565b600060208201905081810360008301526117bf81611783565b9050919050565b7f4465706f74206d696e696d756d20726571756973000000000000000000000000600082015250565b60006117fc601483611293565b9150611807826117c6565b602082019050919050565b6000602082019050818103600083015261182b816117ef565b9050919050565b7f416472657373652076656e6465757220696e76616c6964650000000000000000600082015250565b6000611868601883611293565b915061187382611832565b602082019050919050565b600060208201905081810360008301526118978161185b565b9050919050565b7f4e487b7100000000000000000000000000000000000000000000000000000000600052601160045260246000fd5b60006118d882610e49565b91507fffffffffffffffffffffffffffffffffffffffffffffffffffffffffffffffff820361190a5761190961189e565b5b600182019050919050565b600060ff82169050919050565b61192b81611915565b82525050565b60006080820190506119466000830187610f7d565b6119536020830186611922565b6119606040830185610f7d565b61196d6060830184610f7d565b95945050505050565b7f4c6f6e6775657572206465207369676e617475726520696e76616c6964650000600082015250565b60006119ac601e83611293565b91506119b782611976565b602082019050919050565b600060208201905081810360008301526119db8161199f565b905091905056fea2646970667358221220342a896375bb39b47d359bbb561939b43b6c7bad8187a0835e2c93df8b63f15264736f6c63430008180033",
  "linkReferences": {},
  "deployedLinkReferences": {}
}